{
  "_format": "hh-sol-artifact-1",
  "contractName": "GojoNft",
  "sourceName": "contracts/GojoNft.sol",
  "abi": [
    {
      "inputs": [
        {
          "internalType": "string",
          "name": "_name",
          "type": "string"
        },
        {
          "internalType": "string",
          "name": "_symbol",
          "type": "string"
        },
        {
          "internalType": "address",
          "name": "_gelatoRelay",
          "type": "address"
        }
      ],
      "stateMutability": "nonpayable",
      "type": "constructor"
    },
    {
      "anonymous": false,
      "inputs": [
        {
          "indexed": true,
          "internalType": "address",
          "name": "owner",
          "type": "address"
        },
        {
          "indexed": true,
          "internalType": "address",
          "name": "approved",
          "type": "address"
        },
        {
          "indexed": true,
          "internalType": "uint256",
          "name": "tokenId",
          "type": "uint256"
        }
      ],
      "name": "Approval",
      "type": "event"
    },
    {
      "anonymous": false,
      "inputs": [
        {
          "indexed": true,
          "internalType": "address",
          "name": "owner",
          "type": "address"
        },
        {
          "indexed": true,
          "internalType": "address",
          "name": "operator",
          "type": "address"
        },
        {
          "indexed": false,
          "internalType": "bool",
          "name": "approved",
          "type": "bool"
        }
      ],
      "name": "ApprovalForAll",
      "type": "event"
    },
    {
      "anonymous": false,
      "inputs": [
        {
          "indexed": false,
          "internalType": "address",
          "name": "_msgSender",
          "type": "address"
        },
        {
          "indexed": false,
          "internalType": "uint256",
          "name": "tokenCounter",
          "type": "uint256"
        }
      ],
      "name": "GojoNftMinted",
      "type": "event"
    },
    {
      "anonymous": false,
      "inputs": [
        {
          "indexed": true,
          "internalType": "address",
          "name": "from",
          "type": "address"
        },
        {
          "indexed": true,
          "internalType": "address",
          "name": "to",
          "type": "address"
        },
        {
          "indexed": true,
          "internalType": "uint256",
          "name": "tokenId",
          "type": "uint256"
        }
      ],
      "name": "Transfer",
      "type": "event"
    },
    {
      "inputs": [
        {
          "internalType": "address",
          "name": "to",
          "type": "address"
        },
        {
          "internalType": "uint256",
          "name": "tokenId",
          "type": "uint256"
        }
      ],
      "name": "approve",
      "outputs": [],
      "stateMutability": "nonpayable",
      "type": "function"
    },
    {
      "inputs": [
        {
          "internalType": "address",
          "name": "owner",
          "type": "address"
        }
      ],
      "name": "balanceOf",
      "outputs": [
        {
          "internalType": "uint256",
          "name": "",
          "type": "uint256"
        }
      ],
      "stateMutability": "view",
      "type": "function"
    },
    {
      "inputs": [
        {
          "internalType": "uint256",
          "name": "tokenId",
          "type": "uint256"
        }
      ],
      "name": "getApproved",
      "outputs": [
        {
          "internalType": "address",
          "name": "",
          "type": "address"
        }
      ],
      "stateMutability": "view",
      "type": "function"
    },
    {
      "inputs": [
        {
          "internalType": "address",
          "name": "owner",
          "type": "address"
        },
        {
          "internalType": "address",
          "name": "operator",
          "type": "address"
        }
      ],
      "name": "isApprovedForAll",
      "outputs": [
        {
          "internalType": "bool",
          "name": "",
          "type": "bool"
        }
      ],
      "stateMutability": "view",
      "type": "function"
    },
    {
      "inputs": [
        {
          "internalType": "address",
          "name": "forwarder",
          "type": "address"
        }
      ],
      "name": "isTrustedForwarder",
      "outputs": [
        {
          "internalType": "bool",
          "name": "",
          "type": "bool"
        }
      ],
      "stateMutability": "view",
      "type": "function"
    },
    {
      "inputs": [
        {
          "internalType": "string",
          "name": "tokenUri",
          "type": "string"
        }
      ],
      "name": "mintNft",
      "outputs": [],
      "stateMutability": "nonpayable",
      "type": "function"
    },
    {
      "inputs": [],
      "name": "name",
      "outputs": [
        {
          "internalType": "string",
          "name": "",
          "type": "string"
        }
      ],
      "stateMutability": "view",
      "type": "function"
    },
    {
      "inputs": [
        {
          "internalType": "uint256",
          "name": "tokenId",
          "type": "uint256"
        }
      ],
      "name": "ownerOf",
      "outputs": [
        {
          "internalType": "address",
          "name": "",
          "type": "address"
        }
      ],
      "stateMutability": "view",
      "type": "function"
    },
    {
      "inputs": [
        {
          "internalType": "address",
          "name": "from",
          "type": "address"
        },
        {
          "internalType": "address",
          "name": "to",
          "type": "address"
        },
        {
          "internalType": "uint256",
          "name": "tokenId",
          "type": "uint256"
        }
      ],
      "name": "safeTransferFrom",
      "outputs": [],
      "stateMutability": "nonpayable",
      "type": "function"
    },
    {
      "inputs": [
        {
          "internalType": "address",
          "name": "from",
          "type": "address"
        },
        {
          "internalType": "address",
          "name": "to",
          "type": "address"
        },
        {
          "internalType": "uint256",
          "name": "tokenId",
          "type": "uint256"
        },
        {
          "internalType": "bytes",
          "name": "data",
          "type": "bytes"
        }
      ],
      "name": "safeTransferFrom",
      "outputs": [],
      "stateMutability": "nonpayable",
      "type": "function"
    },
    {
      "inputs": [
        {
          "internalType": "address",
          "name": "operator",
          "type": "address"
        },
        {
          "internalType": "bool",
          "name": "approved",
          "type": "bool"
        }
      ],
      "name": "setApprovalForAll",
      "outputs": [],
      "stateMutability": "nonpayable",
      "type": "function"
    },
    {
      "inputs": [
        {
          "internalType": "bytes4",
          "name": "interfaceId",
          "type": "bytes4"
        }
      ],
      "name": "supportsInterface",
      "outputs": [
        {
          "internalType": "bool",
          "name": "",
          "type": "bool"
        }
      ],
      "stateMutability": "view",
      "type": "function"
    },
    {
      "inputs": [],
      "name": "symbol",
      "outputs": [
        {
          "internalType": "string",
          "name": "",
          "type": "string"
        }
      ],
      "stateMutability": "view",
      "type": "function"
    },
    {
      "inputs": [
        {
          "internalType": "uint256",
          "name": "tokenId",
          "type": "uint256"
        }
      ],
      "name": "tokenURI",
      "outputs": [
        {
          "internalType": "string",
          "name": "",
          "type": "string"
        }
      ],
      "stateMutability": "view",
      "type": "function"
    },
    {
      "inputs": [
        {
          "internalType": "address",
          "name": "from",
          "type": "address"
        },
        {
          "internalType": "address",
          "name": "to",
          "type": "address"
        },
        {
          "internalType": "uint256",
          "name": "tokenId",
          "type": "uint256"
        }
      ],
      "name": "transferFrom",
      "outputs": [],
      "stateMutability": "nonpayable",
      "type": "function"
    }
  ],
  "bytecode": "0x60a060405234801561001057600080fd5b50604051612da9380380612da98339818101604052810190610032919061026f565b8083838160009081610044919061051b565b508060019081610054919061051b565b5050508073ffffffffffffffffffffffffffffffffffffffff1660808173ffffffffffffffffffffffffffffffffffffffff16815250505060006006819055505050506105ed565b6000604051905090565b600080fd5b600080fd5b600080fd5b600080fd5b6000601f19601f8301169050919050565b7f4e487b7100000000000000000000000000000000000000000000000000000000600052604160045260246000fd5b610103826100ba565b810181811067ffffffffffffffff82111715610122576101216100cb565b5b80604052505050565b600061013561009c565b905061014182826100fa565b919050565b600067ffffffffffffffff821115610161576101606100cb565b5b61016a826100ba565b9050602081019050919050565b60005b8381101561019557808201518184015260208101905061017a565b60008484015250505050565b60006101b46101af84610146565b61012b565b9050828152602081018484840111156101d0576101cf6100b5565b5b6101db848285610177565b509392505050565b600082601f8301126101f8576101f76100b0565b5b81516102088482602086016101a1565b91505092915050565b600073ffffffffffffffffffffffffffffffffffffffff82169050919050565b600061023c82610211565b9050919050565b61024c81610231565b811461025757600080fd5b50565b60008151905061026981610243565b92915050565b600080600060608486031215610288576102876100a6565b5b600084015167ffffffffffffffff8111156102a6576102a56100ab565b5b6102b2868287016101e3565b935050602084015167ffffffffffffffff8111156102d3576102d26100ab565b5b6102df868287016101e3565b92505060406102f08682870161025a565b9150509250925092565b600081519050919050565b7f4e487b7100000000000000000000000000000000000000000000000000000000600052602260045260246000fd5b6000600282049050600182168061034c57607f821691505b60208210810361035f5761035e610305565b5b50919050565b60008190508160005260206000209050919050565b60006020601f8301049050919050565b600082821b905092915050565b6000600883026103c77fffffffffffffffffffffffffffffffffffffffffffffffffffffffffffffffff8261038a565b6103d1868361038a565b95508019841693508086168417925050509392505050565b6000819050919050565b6000819050919050565b600061041861041361040e846103e9565b6103f3565b6103e9565b9050919050565b6000819050919050565b610432836103fd565b61044661043e8261041f565b848454610397565b825550505050565b600090565b61045b61044e565b610466818484610429565b505050565b5b8181101561048a5761047f600082610453565b60018101905061046c565b5050565b601f8211156104cf576104a081610365565b6104a98461037a565b810160208510156104b8578190505b6104cc6104c48561037a565b83018261046b565b50505b505050565b600082821c905092915050565b60006104f2600019846008026104d4565b1980831691505092915050565b600061050b83836104e1565b9150826002028217905092915050565b610524826102fa565b67ffffffffffffffff81111561053d5761053c6100cb565b5b6105478254610334565b61055282828561048e565b600060209050601f8311600181146105855760008415610573578287015190505b61057d85826104ff565b8655506105e5565b601f19841661059386610365565b60005b828110156105bb57848901518255600182019150602085019450602081019050610596565b868310156105d857848901516105d4601f8916826104e1565b8355505b6001600288020188555050505b505050505050565b6080516127a1610608600039600061068301526127a16000f3fe608060405234801561001057600080fd5b50600436106100f55760003560e01c80636352211e11610097578063b88d4fde11610066578063b88d4fde14610296578063c87b56dd146102b2578063da86f4a9146102e2578063e985e9c5146102fe576100f5565b80636352211e146101fc57806370a082311461022c57806395d89b411461025c578063a22cb4651461027a576100f5565b8063095ea7b3116100d3578063095ea7b31461017857806323b872dd1461019457806342842e0e146101b0578063572b6c05146101cc576100f5565b806301ffc9a7146100fa57806306fdde031461012a578063081812fc14610148575b600080fd5b610114600480360381019061010f9190611724565b61032e565b604051610121919061176c565b60405180910390f35b610132610410565b60405161013f9190611817565b60405180910390f35b610162600480360381019061015d919061186f565b6104a2565b60405161016f91906118dd565b60405180910390f35b610192600480360381019061018d9190611924565b6104e8565b005b6101ae60048036038101906101a99190611964565b6105ff565b005b6101ca60048036038101906101c59190611964565b61065f565b005b6101e660048036038101906101e191906119b7565b61067f565b6040516101f3919061176c565b60405180910390f35b6102166004803603810190610211919061186f565b6106d7565b60405161022391906118dd565b60405180910390f35b610246600480360381019061024191906119b7565b61075d565b60405161025391906119f3565b60405180910390f35b610264610814565b6040516102719190611817565b60405180910390f35b610294600480360381019061028f9190611a3a565b6108a6565b005b6102b060048036038101906102ab9190611baf565b6108bc565b005b6102cc60048036038101906102c7919061186f565b61091e565b6040516102d99190611817565b60405180910390f35b6102fc60048036038101906102f79190611cd3565b6109c3565b005b61031860048036038101906103139190611d1c565b610a5c565b604051610325919061176c565b60405180910390f35b60007f80ac58cd000000000000000000000000000000000000000000000000000000007bffffffffffffffffffffffffffffffffffffffffffffffffffffffff1916827bffffffffffffffffffffffffffffffffffffffffffffffffffffffff191614806103f957507f5b5e139f000000000000000000000000000000000000000000000000000000007bffffffffffffffffffffffffffffffffffffffffffffffffffffffff1916827bffffffffffffffffffffffffffffffffffffffffffffffffffffffff1916145b80610409575061040882610af0565b5b9050919050565b60606000805461041f90611d8b565b80601f016020809104026020016040519081016040528092919081815260200182805461044b90611d8b565b80156104985780601f1061046d57610100808354040283529160200191610498565b820191906000526020600020905b81548152906001019060200180831161047b57829003601f168201915b5050505050905090565b60006104ad82610b5a565b6004600083815260200190815260200160002060009054906101000a900473ffffffffffffffffffffffffffffffffffffffff169050919050565b60006104f3826106d7565b90508073ffffffffffffffffffffffffffffffffffffffff168373ffffffffffffffffffffffffffffffffffffffff1603610563576040517f08c379a000000000000000000000000000000000000000000000000000000000815260040161055a90611e2e565b60405180910390fd5b8073ffffffffffffffffffffffffffffffffffffffff16610582610ba5565b73ffffffffffffffffffffffffffffffffffffffff1614806105b157506105b0816105ab610ba5565b610a5c565b5b6105f0576040517f08c379a00000000000000000000000000000000000000000000000000000000081526004016105e790611ec0565b60405180910390fd5b6105fa8383610bb4565b505050565b61061061060a610ba5565b82610c6d565b61064f576040517f08c379a000000000000000000000000000000000000000000000000000000000815260040161064690611f52565b60405180910390fd5b61065a838383610d02565b505050565b61067a838383604051806020016040528060008152506108bc565b505050565b60007f000000000000000000000000000000000000000000000000000000000000000073ffffffffffffffffffffffffffffffffffffffff168273ffffffffffffffffffffffffffffffffffffffff16149050919050565b6000806106e383610ffb565b9050600073ffffffffffffffffffffffffffffffffffffffff168173ffffffffffffffffffffffffffffffffffffffff1603610754576040517f08c379a000000000000000000000000000000000000000000000000000000000815260040161074b90611fbe565b60405180910390fd5b80915050919050565b60008073ffffffffffffffffffffffffffffffffffffffff168273ffffffffffffffffffffffffffffffffffffffff16036107cd576040517f08c379a00000000000000000000000000000000000000000000000000000000081526004016107c490612050565b60405180910390fd5b600360008373ffffffffffffffffffffffffffffffffffffffff1673ffffffffffffffffffffffffffffffffffffffff168152602001908152602001600020549050919050565b60606001805461082390611d8b565b80601f016020809104026020016040519081016040528092919081815260200182805461084f90611d8b565b801561089c5780601f106108715761010080835404028352916020019161089c565b820191906000526020600020905b81548152906001019060200180831161087f57829003601f168201915b5050505050905090565b6108b86108b1610ba5565b8383611038565b5050565b6108cd6108c7610ba5565b83610c6d565b61090c576040517f08c379a000000000000000000000000000000000000000000000000000000000815260040161090390611f52565b60405180910390fd5b610918848484846111a4565b50505050565b606060076000838152602001908152602001600020805461093e90611d8b565b80601f016020809104026020016040519081016040528092919081815260200182805461096a90611d8b565b80156109b75780601f1061098c576101008083540402835291602001916109b7565b820191906000526020600020905b81548152906001019060200180831161099a57829003601f168201915b50505050509050919050565b60006109cd610ba5565b90508160076000600654815260200190815260200160002090816109f1919061221c565b50610a056109fd610ba5565b600654611200565b7f8f8bdee66956e3b06781cdd03636cf04ea1057898e6d19fe27465c6b4bec54a181600654604051610a389291906122ee565b60405180910390a160066000815480929190610a5390612346565b91905055505050565b6000600560008473ffffffffffffffffffffffffffffffffffffffff1673ffffffffffffffffffffffffffffffffffffffff16815260200190815260200160002060008373ffffffffffffffffffffffffffffffffffffffff1673ffffffffffffffffffffffffffffffffffffffff16815260200190815260200160002060009054906101000a900460ff16905092915050565b60007f01ffc9a7000000000000000000000000000000000000000000000000000000007bffffffffffffffffffffffffffffffffffffffffffffffffffffffff1916827bffffffffffffffffffffffffffffffffffffffffffffffffffffffff1916149050919050565b610b638161121e565b610ba2576040517f08c379a0000000000000000000000000000000000000000000000000000000008152600401610b9990611fbe565b60405180910390fd5b50565b6000610baf61125f565b905090565b816004600083815260200190815260200160002060006101000a81548173ffffffffffffffffffffffffffffffffffffffff021916908373ffffffffffffffffffffffffffffffffffffffff160217905550808273ffffffffffffffffffffffffffffffffffffffff16610c27836106d7565b73ffffffffffffffffffffffffffffffffffffffff167f8c5be1e5ebec7d5bd14f71427d1e84f3dd0314c0f7b2291e5b200ac8c7c3b92560405160405180910390a45050565b600080610c79836106d7565b90508073ffffffffffffffffffffffffffffffffffffffff168473ffffffffffffffffffffffffffffffffffffffff161480610cbb5750610cba8185610a5c565b5b80610cf957508373ffffffffffffffffffffffffffffffffffffffff16610ce1846104a2565b73ffffffffffffffffffffffffffffffffffffffff16145b91505092915050565b8273ffffffffffffffffffffffffffffffffffffffff16610d22826106d7565b73ffffffffffffffffffffffffffffffffffffffff1614610d78576040517f08c379a0000000000000000000000000000000000000000000000000000000008152600401610d6f90612400565b60405180910390fd5b600073ffffffffffffffffffffffffffffffffffffffff168273ffffffffffffffffffffffffffffffffffffffff1603610de7576040517f08c379a0000000000000000000000000000000000000000000000000000000008152600401610dde90612492565b60405180910390fd5b610df4838383600161128a565b8273ffffffffffffffffffffffffffffffffffffffff16610e14826106d7565b73ffffffffffffffffffffffffffffffffffffffff1614610e6a576040517f08c379a0000000000000000000000000000000000000000000000000000000008152600401610e6190612400565b60405180910390fd5b6004600082815260200190815260200160002060006101000a81549073ffffffffffffffffffffffffffffffffffffffff02191690556001600360008573ffffffffffffffffffffffffffffffffffffffff1673ffffffffffffffffffffffffffffffffffffffff168152602001908152602001600020600082825403925050819055506001600360008473ffffffffffffffffffffffffffffffffffffffff1673ffffffffffffffffffffffffffffffffffffffff16815260200190815260200160002060008282540192505081905550816002600083815260200190815260200160002060006101000a81548173ffffffffffffffffffffffffffffffffffffffff021916908373ffffffffffffffffffffffffffffffffffffffff160217905550808273ffffffffffffffffffffffffffffffffffffffff168473ffffffffffffffffffffffffffffffffffffffff167fddf252ad1be2c89b69c2b068fc378daa952ba7f163c4a11628f55a4df523b3ef60405160405180910390a4610ff68383836001611290565b505050565b60006002600083815260200190815260200160002060009054906101000a900473ffffffffffffffffffffffffffffffffffffffff169050919050565b8173ffffffffffffffffffffffffffffffffffffffff168373ffffffffffffffffffffffffffffffffffffffff16036110a6576040517f08c379a000000000000000000000000000000000000000000000000000000000815260040161109d906124fe565b60405180910390fd5b80600560008573ffffffffffffffffffffffffffffffffffffffff1673ffffffffffffffffffffffffffffffffffffffff16815260200190815260200160002060008473ffffffffffffffffffffffffffffffffffffffff1673ffffffffffffffffffffffffffffffffffffffff16815260200190815260200160002060006101000a81548160ff0219169083151502179055508173ffffffffffffffffffffffffffffffffffffffff168373ffffffffffffffffffffffffffffffffffffffff167f17307eab39ab6107e8899845ad3d59bd9653f200f220920489ca2b5937696c3183604051611197919061176c565b60405180910390a3505050565b6111af848484610d02565b6111bb84848484611296565b6111fa576040517f08c379a00000000000000000000000000000000000000000000000000000000081526004016111f190612590565b60405180910390fd5b50505050565b61121a82826040518060200160405280600081525061141d565b5050565b60008073ffffffffffffffffffffffffffffffffffffffff1661124083610ffb565b73ffffffffffffffffffffffffffffffffffffffff1614159050919050565b600061126a3361067f565b1561127e57601436033560601c9050611286565b339050611287565b5b90565b50505050565b50505050565b60006112b78473ffffffffffffffffffffffffffffffffffffffff16611478565b15611410578373ffffffffffffffffffffffffffffffffffffffff1663150b7a026112e0610ba5565b8786866040518563ffffffff1660e01b81526004016113029493929190612605565b6020604051808303816000875af192505050801561133e57506040513d601f19601f8201168201806040525081019061133b9190612666565b60015b6113c0573d806000811461136e576040519150601f19603f3d011682016040523d82523d6000602084013e611373565b606091505b5060008151036113b8576040517f08c379a00000000000000000000000000000000000000000000000000000000081526004016113af90612590565b60405180910390fd5b805181602001fd5b63150b7a0260e01b7bffffffffffffffffffffffffffffffffffffffffffffffffffffffff1916817bffffffffffffffffffffffffffffffffffffffffffffffffffffffff191614915050611415565b600190505b949350505050565b611427838361149b565b6114346000848484611296565b611473576040517f08c379a000000000000000000000000000000000000000000000000000000000815260040161146a90612590565b60405180910390fd5b505050565b6000808273ffffffffffffffffffffffffffffffffffffffff163b119050919050565b600073ffffffffffffffffffffffffffffffffffffffff168273ffffffffffffffffffffffffffffffffffffffff160361150a576040517f08c379a0000000000000000000000000000000000000000000000000000000008152600401611501906126df565b60405180910390fd5b6115138161121e565b15611553576040517f08c379a000000000000000000000000000000000000000000000000000000000815260040161154a9061274b565b60405180910390fd5b61156160008383600161128a565b61156a8161121e565b156115aa576040517f08c379a00000000000000000000000000000000000000000000000000000000081526004016115a19061274b565b60405180910390fd5b6001600360008473ffffffffffffffffffffffffffffffffffffffff1673ffffffffffffffffffffffffffffffffffffffff16815260200190815260200160002060008282540192505081905550816002600083815260200190815260200160002060006101000a81548173ffffffffffffffffffffffffffffffffffffffff021916908373ffffffffffffffffffffffffffffffffffffffff160217905550808273ffffffffffffffffffffffffffffffffffffffff16600073ffffffffffffffffffffffffffffffffffffffff167fddf252ad1be2c89b69c2b068fc378daa952ba7f163c4a11628f55a4df523b3ef60405160405180910390a46116b4600083836001611290565b5050565b6000604051905090565b600080fd5b600080fd5b60007fffffffff0000000000000000000000000000000000000000000000000000000082169050919050565b611701816116cc565b811461170c57600080fd5b50565b60008135905061171e816116f8565b92915050565b60006020828403121561173a576117396116c2565b5b60006117488482850161170f565b91505092915050565b60008115159050919050565b61176681611751565b82525050565b6000602082019050611781600083018461175d565b92915050565b600081519050919050565b600082825260208201905092915050565b60005b838110156117c15780820151818401526020810190506117a6565b60008484015250505050565b6000601f19601f8301169050919050565b60006117e982611787565b6117f38185611792565b93506118038185602086016117a3565b61180c816117cd565b840191505092915050565b6000602082019050818103600083015261183181846117de565b905092915050565b6000819050919050565b61184c81611839565b811461185757600080fd5b50565b60008135905061186981611843565b92915050565b600060208284031215611885576118846116c2565b5b60006118938482850161185a565b91505092915050565b600073ffffffffffffffffffffffffffffffffffffffff82169050919050565b60006118c78261189c565b9050919050565b6118d7816118bc565b82525050565b60006020820190506118f260008301846118ce565b92915050565b611901816118bc565b811461190c57600080fd5b50565b60008135905061191e816118f8565b92915050565b6000806040838503121561193b5761193a6116c2565b5b60006119498582860161190f565b925050602061195a8582860161185a565b9150509250929050565b60008060006060848603121561197d5761197c6116c2565b5b600061198b8682870161190f565b935050602061199c8682870161190f565b92505060406119ad8682870161185a565b9150509250925092565b6000602082840312156119cd576119cc6116c2565b5b60006119db8482850161190f565b91505092915050565b6119ed81611839565b82525050565b6000602082019050611a0860008301846119e4565b92915050565b611a1781611751565b8114611a2257600080fd5b50565b600081359050611a3481611a0e565b92915050565b60008060408385031215611a5157611a506116c2565b5b6000611a5f8582860161190f565b9250506020611a7085828601611a25565b9150509250929050565b600080fd5b600080fd5b7f4e487b7100000000000000000000000000000000000000000000000000000000600052604160045260246000fd5b611abc826117cd565b810181811067ffffffffffffffff82111715611adb57611ada611a84565b5b80604052505050565b6000611aee6116b8565b9050611afa8282611ab3565b919050565b600067ffffffffffffffff821115611b1a57611b19611a84565b5b611b23826117cd565b9050602081019050919050565b82818337600083830152505050565b6000611b52611b4d84611aff565b611ae4565b905082815260208101848484011115611b6e57611b6d611a7f565b5b611b79848285611b30565b509392505050565b600082601f830112611b9657611b95611a7a565b5b8135611ba6848260208601611b3f565b91505092915050565b60008060008060808587031215611bc957611bc86116c2565b5b6000611bd78782880161190f565b9450506020611be88782880161190f565b9350506040611bf98782880161185a565b925050606085013567ffffffffffffffff811115611c1a57611c196116c7565b5b611c2687828801611b81565b91505092959194509250565b600067ffffffffffffffff821115611c4d57611c4c611a84565b5b611c56826117cd565b9050602081019050919050565b6000611c76611c7184611c32565b611ae4565b905082815260208101848484011115611c9257611c91611a7f565b5b611c9d848285611b30565b509392505050565b600082601f830112611cba57611cb9611a7a565b5b8135611cca848260208601611c63565b91505092915050565b600060208284031215611ce957611ce86116c2565b5b600082013567ffffffffffffffff811115611d0757611d066116c7565b5b611d1384828501611ca5565b91505092915050565b60008060408385031215611d3357611d326116c2565b5b6000611d418582860161190f565b9250506020611d528582860161190f565b9150509250929050565b7f4e487b7100000000000000000000000000000000000000000000000000000000600052602260045260246000fd5b60006002820490506001821680611da357607f821691505b602082108103611db657611db5611d5c565b5b50919050565b7f4552433732313a20617070726f76616c20746f2063757272656e74206f776e6560008201527f7200000000000000000000000000000000000000000000000000000000000000602082015250565b6000611e18602183611792565b9150611e2382611dbc565b604082019050919050565b60006020820190508181036000830152611e4781611e0b565b9050919050565b7f4552433732313a20617070726f76652063616c6c6572206973206e6f7420746f60008201527f6b656e206f776e6572206f7220617070726f76656420666f7220616c6c000000602082015250565b6000611eaa603d83611792565b9150611eb582611e4e565b604082019050919050565b60006020820190508181036000830152611ed981611e9d565b9050919050565b7f4552433732313a2063616c6c6572206973206e6f7420746f6b656e206f776e6560008201527f72206f7220617070726f76656400000000000000000000000000000000000000602082015250565b6000611f3c602d83611792565b9150611f4782611ee0565b604082019050919050565b60006020820190508181036000830152611f6b81611f2f565b9050919050565b7f4552433732313a20696e76616c696420746f6b656e2049440000000000000000600082015250565b6000611fa8601883611792565b9150611fb382611f72565b602082019050919050565b60006020820190508181036000830152611fd781611f9b565b9050919050565b7f4552433732313a2061646472657373207a65726f206973206e6f74206120766160008201527f6c6964206f776e65720000000000000000000000000000000000000000000000602082015250565b600061203a602983611792565b915061204582611fde565b604082019050919050565b600060208201905081810360008301526120698161202d565b9050919050565b60008190508160005260206000209050919050565b60006020601f8301049050919050565b600082821b905092915050565b6000600883026120d27fffffffffffffffffffffffffffffffffffffffffffffffffffffffffffffffff82612095565b6120dc8683612095565b95508019841693508086168417925050509392505050565b6000819050919050565b600061211961211461210f84611839565b6120f4565b611839565b9050919050565b6000819050919050565b612133836120fe565b61214761213f82612120565b8484546120a2565b825550505050565b600090565b61215c61214f565b61216781848461212a565b505050565b5b8181101561218b57612180600082612154565b60018101905061216d565b5050565b601f8211156121d0576121a181612070565b6121aa84612085565b810160208510156121b9578190505b6121cd6121c585612085565b83018261216c565b50505b505050565b600082821c905092915050565b60006121f3600019846008026121d5565b1980831691505092915050565b600061220c83836121e2565b9150826002028217905092915050565b61222582611787565b67ffffffffffffffff81111561223e5761223d611a84565b5b6122488254611d8b565b61225382828561218f565b600060209050601f8311600181146122865760008415612274578287015190505b61227e8582612200565b8655506122e6565b601f19841661229486612070565b60005b828110156122bc57848901518255600182019150602085019450602081019050612297565b868310156122d957848901516122d5601f8916826121e2565b8355505b6001600288020188555050505b505050505050565b600060408201905061230360008301856118ce565b61231060208301846119e4565b9392505050565b7f4e487b7100000000000000000000000000000000000000000000000000000000600052601160045260246000fd5b600061235182611839565b91507fffffffffffffffffffffffffffffffffffffffffffffffffffffffffffffffff820361238357612382612317565b5b600182019050919050565b7f4552433732313a207472616e736665722066726f6d20696e636f72726563742060008201527f6f776e6572000000000000000000000000000000000000000000000000000000602082015250565b60006123ea602583611792565b91506123f58261238e565b604082019050919050565b60006020820190508181036000830152612419816123dd565b9050919050565b7f4552433732313a207472616e7366657220746f20746865207a65726f2061646460008201527f7265737300000000000000000000000000000000000000000000000000000000602082015250565b600061247c602483611792565b915061248782612420565b604082019050919050565b600060208201905081810360008301526124ab8161246f565b9050919050565b7f4552433732313a20617070726f766520746f2063616c6c657200000000000000600082015250565b60006124e8601983611792565b91506124f3826124b2565b602082019050919050565b60006020820190508181036000830152612517816124db565b9050919050565b7f4552433732313a207472616e7366657220746f206e6f6e20455243373231526560008201527f63656976657220696d706c656d656e7465720000000000000000000000000000602082015250565b600061257a603283611792565b91506125858261251e565b604082019050919050565b600060208201905081810360008301526125a98161256d565b9050919050565b600081519050919050565b600082825260208201905092915050565b60006125d7826125b0565b6125e181856125bb565b93506125f18185602086016117a3565b6125fa816117cd565b840191505092915050565b600060808201905061261a60008301876118ce565b61262760208301866118ce565b61263460408301856119e4565b818103606083015261264681846125cc565b905095945050505050565b600081519050612660816116f8565b92915050565b60006020828403121561267c5761267b6116c2565b5b600061268a84828501612651565b91505092915050565b7f4552433732313a206d696e7420746f20746865207a65726f2061646472657373600082015250565b60006126c9602083611792565b91506126d482612693565b602082019050919050565b600060208201905081810360008301526126f8816126bc565b9050919050565b7f4552433732313a20746f6b656e20616c7265616479206d696e74656400000000600082015250565b6000612735601c83611792565b9150612740826126ff565b602082019050919050565b6000602082019050818103600083015261276481612728565b905091905056fea2646970667358221220299ec7b1c09fae1ed6030c52f89b80f2f38d7a7c74a0d59bdf3263b2f6fc1db264736f6c634300081b0033",
  "linkReferences": {},
  "deployedLinkReferences": {}
}